:1000000000800020BD010000E54D00009D4D000076
:100010009D4D00009D4D00009D4D00009D4D000038
:100020009D4D00009D4D00009D4D0000E54D0000E0
:10003000E54D00009D4D000041680000456900004D
:10004000E54D0000E54D0000E54D0000E54D0000E8
:10005000E54D0000E54D0000E54D0000E54D0000D8
:10006000E54D0000E54D0000E54D0000E54D0000C8
:10007000E54D0000E54D0000E54D0000E54D0000B8
:10008000E54D0000E54D0000E54D0000E54D0000A8
:10009000E54D0000E54D0000E54D0000E54D000098
:1000A000B5470000C1470000E54D0000E54D0000E8
:1000B000E54D0000E54D0000E54D0000E54D000078
:1000C000E54D0000E54D0000E54D0000E54D000068
:1000D000E54D0000E54D0000E54D0000E54D000058
:1000E000E54D0000E54D0000E54D0000E54D000048
:1000F000E54D0000116E0000E54D00003D6F000071
:10010000E54D000069700000E54D0000E54D000080
:10011000E54D0000E54D0000E54D0000E54D000017
:10012000E54D0000E54D0000E54D0000E54D000007
:10013000E54D0000E54D0000E54D0000E54D0000F7
:10014000E54D0000E54D0000E54D0000E54D0000E7
:10015000E54D0000E54D0000E54D0000E54D0000D7
:10016000E54D0000F5530000E54D0000E54D0000B1
:10017000E54D0000E54D0000E54D0000E54D0000B7
:10018000E54D0000E54D0000E54D0000E54D0000A7
:10019000E54D0000E54D0000E54D0000E54D000097
:1001A000E54D0000E54D0000E54D0000E54D000087
:1001B000E54D0000E54D0000FD650000564B4CF29A
:1001C000205210B51A804DF628121A8000BF00BFC9
:1001D00004F00CFE514B4FF010621A60504A9A60C6
:1001E000504ADA60504A136813F4807304D14F49BF
:1001F0000B604FF4A85313604D4B1A78110703D5C9
:100200001A7842F008021A704A4B4B492A221A7097
:100210004A4A4B4B8B4204D252F8040F43F8040B6A
:10022000F8E7484B484900228B4202D243F8042B9E
:10023000FAE74649464A002352F8230041F82300D2
:1002400001336F2BF8D1434B434A802103F8011B44
:100250009342FBD1414B3D4A1A60414B8A221A70AE
:10026000A3F5805324225A70A0221A709A7992071B
:10027000FCD59A79D406FCD43A4A937903F00C035E
:10028000082B384BF9D103221A7140225A719A79FE
:100290009006FCD5334A9179324B4906FBD5324A58
:1002A000324911600221516020221A709A7902F0BD
:1002B0000C020C2AFAD12E4B2E4A1A602E4B2F4AD2
:1002C0001A6000225A60072243F8042C2C4AC3F813
:1002D0000C2D62B604F044FF144B1B68DA0705D5F9
:1002E000284804F0C3FE284B284A1A60284B1B7884
:1002F0005B0609D5244C254B22689A4204D121483B
:1003000004F0B4FE0023236009F000F804F074FD4B
:1003100006F0DCFCFEE700BF0E2005403080044004
:10032000823F04000100002B10D0034014D0034092
:1003300002D0074000E0074058CBFF1FECC500008B
:1003400020BDFF1F58CBFF1F2CDAFF1F00B8FF1F77
:100350000000000000E400E05FE400E008ED00E0E1
:100360000050064000400640448004400000030165
:1003700004800440C010050014E000E0FF76010096
:10038000000020206E16125E1CE00340A5C3945AA4
:1003900000F00740FFFFFFFFFFFFFFFFFFFFFFFF32
:1003A000FFFFFFFFFFFFFFFFFFFFFFFFFFFFFFFF5D
:1003B000FFFFFFFFFFFFFFFFFFFFFFFFFFFFFFFF4D
:1003C000FFFFFFFFFFFFFFFFFFFFFFFFFFFFFFFF3D
:1003D000FFFFFFFFFFFFFFFFFFFFFFFFFFFFFFFF2D
:1003E000FFFFFFFFFFFFFFFFFFFFFFFFFFFFFFFF1D
:1003F000FFFFFFFFFFFFFFFFFFFFFFFFFFFFFFFF0D
:10040000FFFFFFFFFFFFFFFFFFFFFFFFDEF9FFFF23
:1004100010B5054C237833B9044B13B10448AFF33E
:1004200000800123237010BD58CBFF1F0000000087
:10043000F0C50000084B10B51BB108490848AFF3E0
:1004400000800848036803B910BD074B002BFBD0A0
:10045000BDE81040184700BF000000005CCBFF1F44
:10046000F0C5000058CBFF1F0000000010B5044687
:1004700000F5047002F044FC204610BD10B504469F
:1004800006F066F8204610BD002310B4104C4172EF
:10049000026104600372C36041B1194600E0026961
:1004A00042F82310427A01339A42F8DC094B1A6869
:1004B0000AB90BE01A465369002BFBD150610023A7
:1004C00043618380C380837210BC70471860F6E775
:1004D00084A70000FCD7FF1F2DE9F04F504A514B75
:1004E0001468514A03EB041485B008341578A31C32
:1004F0000093002D56D04D4A4D4B12681B684D4E4F
:10050000DFF844814C4D019204F1080B4FF0000AD2
:10051000CDF800B0029327460394D34637F9021F63
:10052000FF291ED0019BC91878D47F29A8BF7F213D
:10053000424B53F82190C6F800900299484608F0C3
:10054000C3FCD8F800A0306104465146484608F084
:10055000B1FB51462860204608F0ACFB0BF1020BC2
:100560002861009B9F4206F1040608F1040805F18A
:100570000405D3D1DA460AF1FF3A314A039C52F816
:100580002A109B462F4B002034F9022FFF2A1ABF56
:100590001960196118605C4503F10403F4D105B0DA
:1005A000BDE8F08F214BDFF894B01F68DFF888A01A
:1005B000A146A84614E07F2BA8BF7F235BF82360E9
:1005C000214B304653F8251008F074FB194B4AF8BC
:1005D000250043F8256008F101080135082D07D0F2
:1005E00039F9023FFF2BF8D0DB19E4D50023E5E70A
:1005F0001349144B08F1FF32002551F822000099ED
:100600000E3134F9022FFF2A14BF18601D608C428E
:1006100003F10403F5D105B0BDE8F08F002187E7B1
:1006200014D2FF1F88CFFF1FD0D3FF1FF0D3FF1FAF
:10063000A4BEFF1FB8BEFF1F7CD2FF1F24CDFF1F2B
:1006400084BEFF1F24BEFF1F00BEFF1F2DE9F84F11
:100650001C4C1D4E824604F120094FF480380027BF
:100660000FE0284608F030FC08F01AFE174BCBF8D4
:100670001C00984217D84C45CBF82070ABF832A03C
:100680001AD056F8045F54F804BF0021CBF8248038
:10069000284608F0B7FD0E4980B9284608F0D0FD7D
:1006A0000C490028DDD0094BCBF81C304C45CBF869
:1006B0002070ABF832A0E4D1BDE8F88FCBF81C7005
:1006C000D9E700BFB4D1FF1FB4BEFF1F0000FE7FFB
:1006D000A655AC464B24BE470B4A0C490438024091
:1006E000002A0CDB0A4B51F8220003F1200153F8D9
:1006F000042F8B42D062FAD10420FFF7A7BF013A42
:1007000062F007020132EDE707000080D8BEFF1F4C
:10071000B4D1FF1F2DE9F04F404C237883B0002B5C
:100720004FD03F4A3F4B126801921B680198C01A94
:1007300008F072FB3C4B196808F0C6FB01464FF00D
:100740007E5008F0B7FA0021824608F05BFD0028D1
:100750005FD1364CDFF8E890DFF8E880344F04F1E1
:10076000200B0AE0284608F0AFFB08F099FD314B5A
:10077000F06198421BD85C451DD059F8041F5046C3
:1007800008F0A2FB014654F8040F08F093FA002188
:1007900048F8040F054608F035FD57F8046F264960
:1007A00060B9284608F04CFD24490028DAD0214BD6
:1007B000F3615C45E1D103B0BDE8F08F0023F36144
:1007C000D9E71B4C194FDFF86C909A4604F12008CA
:1007D00009E0284608F078FB08F062FD4845F06122
:1007E00011D84445E7D057F8045F54F8046F00214E
:1007F000284608F007FD104940B9284608F020FDBA
:100800000E490028E5D0C6F81C90EAE7C6F81CA0FF
:10081000E7E700234FF0000A23709AE76CD2FF1F2E
:10082000FCD6FF1F78CBFF1F48BEFF1FB4BEFF1FC3
:10083000B4D1FF1F0000FE7FA655AC464B24BE4737
:1008400078D2FF1FFCBDFF1F734AF8B51268734BC7
:10085000734D53F822402968204608F035FB714952
:10086000064608F0EDFC40B96F49304608F0CAFC76
:10087000002800F0BC806D4800E06D486D4E69684E
:10088000B061204608F020FB6649074608F0D8FC16
:1008900040B96549384608F0B5FC002800F09F8053
:1008A000624800E06248A968F061204608F00CFB4D
:1008B0005C49074608F0C4FC40B95B49384608F07B
:1008C000A1FC002800F08380584800E05848E968FF
:1008D0003062204608F0F8FA5249074608F0B0FCAA
:1008E00038B95149384608F08DFC002867D04F4888
:1008F00000E04F4870622969204608F0E5FA49494E
:10090000064608F09DFC38B94749304608F07AFCA5
:1009100000284CD0454800E04548474E6969B06121
:10092000204608F0D1FA3F49074608F089FC38B95B
:100930003D49384608F066FC002830D03B4800E0CE
:100940003B48A969F061204608F0BEFA35490746E0
:1009500008F076FC30B93449384608F053FCB0B1A1
:10096000324800E03248E9693062204608F0ACFACB
:100970002C49044608F064FC002849D12A49204645
:1009800008F040FC00283AD028487062F8BD4FF0CB
:100990008F41384608F098FA08F05CFCE3E74FF026
:1009A0008F41384608F090FA08F054FCC9E74FF040
:1009B0008F41304608F088FA08F04CFCADE74FF064
:1009C0008F41384608F080FA08F044FC92E74FF077
:1009D0008F41384608F078FA08F03CFC77E74FF092
:1009E0008F41384608F070FA08F034FC5BE74FF0AE
:1009F0008F41304608F068FA08F02CFC3EE74FF0D3
:100A00008F41204608F060FA08F024FC7062F8BDBF
:100A100007487062F8BD00BF38CFFF1F54BEFF1FEC
:100A200024BEFF1F00FEFF4600FEFFC6000001803F
:100A30000000FF7FDCD1FF1F8CD3FF1FB0FA80F1D5
:100A400010B549090446032004F022FBA4F101017A
:100A5000B1FA81F14909042004F01AFBA4F1020162
:100A6000B1FA81F14909052004F012FBA4F1030158
:100A7000B1FA81F149090620BDE8104004F008BB35
:100A800038B50A210F4802F0EBF9C0B904460A2133
:100A90000C4802F0E5F9054688B90F20FFF7CEFFB4
:100AA000142004F00FFB04F00300FFF7C7FF01342C
:100AB000142004F007FB052CE9D1284638BD012598
:100AC000284638BD8CD4FF1F30B58310194D002B3C
:100AD00083B004462B6008DD174B184A1B6801934E
:100AE0000199174B116001221A7016482040002806
:100AF0001BDBFFF7A3FFE1B240F2D24004F026F97E
:100B0000114B4FF080421A602B6843B12046FFF72B
:100B1000E3FD0E4B4FF080421A6003B030BD0C4B2A
:100B200033F91400FFF792FDF3E7013860F003009A
:100B30000130DEE720CDFF1FFCD6FF1FE8D2FF1FEC
:100B4000D8CCFF1F0300008088E100E008E100E04E
:100B5000ACBEFF1F174B1B68002B2ADD30B5164CAF
:100B600016482268056883B0013B009200994FF453
:100B7000967202FB03F364334A1B93420CD8104A6B
:100B80002168137801910199016083F001031370CA
:100B900023B90F20FFF752FF03B030BD094B0A48BD
:100BA0001B6818400028F5DA013860F003000130B6
:100BB000F0E7704720CDFF1FFCD6FF1FE8D2FF1FD4
:100BC000D8CCFF1F38CFFF1F03000080FFFFFFFFBF
:100BD0002DE9F041002182B0022004F06DFA0021DD
:100BE000082004F069FA0021092004F065FA0121C7
:100BF0000B2004F061FA0121062004F05DFA0121C6
:100C0000052004F059FA0121042004F055FA0121CD
:100C1000032004F051FA32216148624C624E634D68
:100C2000634F05F06BFB0D2003F07CFF614B6249C5
:100C3000624A634819605A606249634ADE601D6116
:100C40009F6058619961DA6104F500766FF04405A0
:100C5000284607F0C5FC02460B464FA1D1E900012A
:100C600006F0B6FA0022594B07F020FD07F0CEFF40
:100C700044F8040FB44205F10105E9D107215448B5
:100C8000544D554C01F008FF0E21514801F04CFF26
:100C900040F2D24004F040F8034600F003002B601D
:100CA000FFF7CCFEFFF7ECFE0146204601F08CF882
:100CB0004A4A6378617A1160002B5BD1484A2B6005
:100CC000484E01231360484B4849A27860681A7067
:100CD000086008F0A1F801464FF07E5008F0A8F92E
:100CE000DFF84481424F434A434B2178C8F8000063
:100CF000207A3860117003F120004FF0004153F862
:100D0000042F98429162FAD13C4B3D4C3D493E4AFA
:100D10004FF080471F6306275F85DF859F86184653
:100D20004FF48043A361E3612362636247F6705727
:100D300000248B61CB610B624B629761D7611462B7
:100D4000546201F0F5F93368E3B12868FFF7C4FC99
:100D50002E4B2F4A1B68019301992E4B11600122E3
:100D60001A702D4A2D4B2E49116040221A6002B094
:100D7000BDE8F0812B681B4E194A9B10032133609C
:100D80001160A0E72A68274B33F91200FFF75EFCD9
:100D9000E7E700BFAFF30080000000A08FF3F03F53
:100DA0000082FF1F20CDFF1FF0CBFF1F28CCFF1FAD
:100DB000B8CBFF1FB8D1FF1FE4CCFF1F80CBFF1FB4
:100DC00050CFFF1F9CD2FF1F64CCFF1F00807B40D1
:100DD000F8BEFF1F38CFFF1F88CFFF1F20BEFF1FA9
:100DE0004CBEFF1F20CDFF1F60CCFF1FA8BEFF1F02
:100DF000B4BEFF1FD0D3FF1FB4D1FF1FA0CCFF1F75
:100E0000DCD1FF1F8CD3FF1F18D2FF1FFCD6FF1FA2
:100E1000E8D2FF1FD8CCFF1F30D3FF1F50D2FF1FD7
:100E2000E672393BACBEFF1F48BEFF1F2DE9F04301
:100E300009208BB003F0AAFE8146062003F0A6FE2F
:100E40000446072003F0A2FE8046082003F09EFE21
:100E50007C4E7D4F35687D4A09EB040341F6FF74F3
:100E6000A342A8BF2346A042A8BF204623EAE373BB
:100E7000444505F1400EA8BF44464FF0000C9E4586
:100E800020EAE07124EAE4743B6082F800C004DBED
:100E9000A5F14000984240F3B08033606C4D286863
:100EA00000F14006B44204DCA0F14006B44280F2F6
:100EB000A78001202C601070664D286800F1400664
:100EC0008E4204DBA0F140068E4240F39480012064
:100ED00029601070604A1268B2F5005F75DA5F48E9
:100EE00002FB033380FB0302DB17C3EBE2135C4A14
:100EF0005C4D10682B60984203D05B48136001235F
:100F000003705A4B186888425DDA081A07F088FFA8
:100F1000574B196807F0D8FF08F09CF9554BC0EB08
:100F2000C00083FB0032C317C3EB620303EB430330
:100F3000A0EB8303243304EB8404484A4E484F4D0E
:100F4000016804EB840482FB0462E417C4EBE2143E
:100F50001C448C422C6003D0434B046001221A7065
:100F6000474C484D082004F099F823680193019AF2
:100F70002968521A0A2A01D900282FD0236805931C
:100F8000059B22680492049E226803925B1A039ACE
:100F90003B493C4F00FB1360131AB3F57A7F28607E
:100FA0000BD90B6807930798374A0B680693374BA2
:100FB00006991060012239601A70354B1B780BB30B
:100FC0000BB0BDE8F0832423B5E702FB03F3002B4D
:100FD000BCBF03F5FF531F335B1388E723682A4A1E
:100FE0000293029B12689B1AB3F57A7FC6D3294BF2
:100FF00001221A70C2E701466CE73D602B464DE7BF
:10100000044659E7244800F037FF234800F06CFFFE
:10101000224B187078B9224B196823680993099BF1
:10102000591A13298CBF002101210B2004F030F83C
:101030000BB0BDE8F08323680893089B184A194653
:101040001360EAE7ECD2FF1F74D3FF1FC4D3FF1F66
:1010500078D2FF1F1CCDFF1F20BEFF1F01E0FF0342
:10106000E0CCFF1F14D2FF1F44BEFF1F50D2FF1F52
:1010700030D3FF1FABAAAA2A74CBFF1FF0D3FF1FE8
:10108000FCD6FF1F54D2FF1F70D3FF1F7CCBFF1F66
:10109000C5D3FF1F2CD3FF1FC8D3FF1FD8D1FF1FFD
:1010A000DCCCFF1F2DE9F041524D86B0FFF7BEFEAC
:1010B0002B78002B40F08C804F4C504F23680293CC
:1010C0004F49029A4F48266801960E68DFF85C8106
:1010D0000078019B921B00FB123398F800200B60F4
:1010E000002A3AD12B78002B4DD1474E3B78434A0A
:1010F0009BB12368454804934549049B00680968EF
:101100001B1A99429CBF00231370424B4FF080453D
:101110001D60FFF7FFFA404B1D60FFF71BFD3378A2
:10112000394DBBB123683D4905933D4A059B09688C
:1011300012685B1A9A420DD200210B2003F0A8FF1F
:101140000021092003F0A4FF0021092003F0B4FFCF
:1011500000232B7006B0BDE8F081DFF8D4E0314BFE
:10116000DEF800101B6801319B0091FBF3F203FBDA
:1011700012131846CEF80030FFF7A6FC0122002318
:101180002A7088F80030236803934FF00108234B3E
:101190001D4E039A1A604146092086F8008003F02C
:1011A0008BFF41460B2003F073FF4146092003F0FB
:1011B0006FFF184B4FF08048C3F80080FFF7AAFA82
:1011C000FFF742FB144A0023C2F800802B708DE722
:1011D000FFF782F9144B084C1B7843B122680B4B84
:1011E0000092064F009A1A6001233B7066E7034F96
:1011F00064E700BF44BEFF1FFCD6FF1F6CD2FF1F79
:101200009CCCFF1F74D2FF1FC5D3FF1F78CBFF1FDD
:10121000A8BEFF1F88E100E008E100E070D2FF1FD8
:1012200050BEFF1F4CBEFF1F60CCFF1F2CD3FF1F03
:1012300038CFFF1F2DE9F04F8BB003F025FDA148FB
:10124000DFF8DCB2DFF8DC82DFF8DC929E4F9F4EE5
:1012500000F0F2FD09219B4800F0F6FD2821994895
:1012600000F008FE9A4B9B491A680392039D1A6886
:101270000492DDF810E01A680592059C1A6806923F
:1012800006981A680792079A0D601968924D08919E
:10129000C5F800E00899914D1B680993904B2C60AC
:1012A000904C1860904B914822600022099C1C6071
:1012B0000160144611465846FFF7E6F84FF08045A6
:1012C000224621464046CBF80060CBF81840CBF8C8
:1012D0001C40CBF82040CBF82440CBF82C40ABF896
:1012E0003040ABF83240ABF83440CBF82850FFF731
:1012F000CBF8224621464846C8F80060C8F8184096
:10130000C8F81C40C8F82040C8F82440C8F8285045
:10131000C8F82C40A8F83040A8F83240A8F834406B
:10132000FFF7B2F8224621463846C9F80060C9F8EE
:101330001840C9F81C40C9F82040C9F82440C9F831
:101340002850C9F82C40A9F83040A9F83240A9F833
:101350003440FFF799F82246214665483E60BC615B
:10136000FC613C627C62BD62FC623C867C86BC8621
:10137000FFF78AF85E4B5F481E60224621469C615B
:10138000DC611C625C629D62DC621C865C869C8601
:10139000FFF77AF8574B58481E60224621469C6159
:1013A000DC611C625C629D62DC621C865C869C86E1
:1013B000FFF76AF8504B51481E60224621469C6157
:1013C000DC611C625C629D62DC621C865C869C86C1
:1013D000FFF75AF84A4B03F128021846474B0421FD
:1013E0001E609C61DC611C625C629D62DC621C862A
:1013F0005C869C86FFF748F8424B434D434E03F111
:10140000280218463E4B4FF4803A04211D60C3F871
:1014100018A0C3F81CA0C3F820A0C3F824A0FFF7AD
:1014200033F83B4B03F128021846364B04211D606C
:10143000C3F818A0C3F81CA0C3F820A0C3F824A0C8
:10144000FFF722F8324B304A1A60012106F11802E8
:101450003046C3F818A0C3F81CA0C3F820A0C3F8F6
:1014600024A0FFF711F82B4A2B4D3260C1223A23FA
:101470000E21F2851C22DFF8B4E07385B1854FF0B0
:10148000005340F277610120F28605F118023477AB
:1014900034853363B186234621462C72EC60C5F84F
:1014A00000E068722A612C4600E0226942F82310AD
:1014B0006A7A194801339A42F7DC184B1A68C2BBA2
:1014C00063E100BFC8D3FF1FF0CBFF1F70C1000056
:1014D000FCD6FF1F9CCCFF1FDCCCFF1F54D2FF1F8C
:1014E00070D3FF1F70D2FF1F78CBFF1FE8D2FF1F02
:1014F00028CCFF1F50CFFF1F9CD2FF1F64CCFF1FC3
:10150000DCD1FF1F8CD3FF1F58C10000A0CCFF1FF0
:1015100018D2FF1F4CC10000D4D3FF1FFCD7FF1F00
:10152000E4CCFF1F80CBFF1FB8CBFF1F84A70000B8
:101530001A465369002BFBD155610024944B954A00
:1015400095486C61AC80EC80AC7201932A6000F02D
:1015500057FF019B914A1C721846C3F800B05A60AD
:101560005C72DC601C7404F0BFFF019BDFF864A2B6
:101570008B4A8C49DFF860B2184607F0B1FE874B02
:10158000CAF8043050464FF001038AF809308AF84F
:101590000840CAF80080CAF80C408AF8104004F0ED
:1015A000A3FF7F4A7F49504607F09AFEDFF82CA23E
:1015B0007A4BCBF804304FF0020858468BF80840BD
:1015C000CBF80090CBF80C408BF810408BF80980DA
:1015D00004F08AFF7349724ADFF80492584607F014
:1015E0007FFE032350466D4A8AF8093001938AF83A
:1015F0000840CAF80070CAF80420CAF80C408AF8FB
:10160000104004F071FF664A6649674FDFF8D4B1B5
:10161000504607F065FE654BC9F800304846644BFC
:10162000DFF8C4A1C9F8043089F8084089F80940F6
:10163000C9F80C4089F8104004F056FF584A59493F
:10164000484607F04DFE5B4BCAF80030584BCAF8CD
:10165000043050464FF001038AF809308AF80840F8
:10166000CAF80C408AF8104004F03EFF4C4A4D493D
:10167000DFF87891504607F033FE4F4B3B60384619
:101680004B4B7B6087F809803C72FC603C7404F033
:101690002BFF434A4349DFF858A1DFF85881384609
:1016A00007F01EFE019B8BF80930444BCBF800304D
:1016B00058463F4BCBF804308BF80840CBF80C4031
:1016C0008BF8104004F010FF354A36493C4F58461D
:1016D00007F006FE314BCAF800305046394BCAF8C5
:1016E00004308AF808408AF80940CAF80C408AF8A1
:1016F000104004F0F9FE2A4A2A49504607F0F0FD4E
:101700004FF0010389F80930294BC9F800304846E9
:101710002C4BC9F8043089F80840C9F80C4089F806
:10172000104004F0E1FE1E4A1E49484607F0D8FD6D
:10173000244B88F80840404688E8480088F809406B
:10174000C8F80C4088F8104004F0CEFE144A154941
:10175000404607F0C5FD38463C723E607D607C72B5
:10176000FC603C7404F0C0FE0D4A0E49384607F098
:10177000B7FD1549154800F03FF8094A14491348C8
:1017800007F0AEFD0BB0BDE8F08F1860D5E600BFE6
:10179000F0D2FF1F64C10000D4D3FF1FDCD1FF1FB4
:1017A000FCBDFF1F7D0400003CCFFF1F28CCFF1FA6
:1017B0008CD3FF1F50CFFF1F9CD2FF1F64CCFF1F95
:1017C00078D3FF1F18D2FF1FC8B5000088CFFF1FB6
:1017D0006D04000024CFFF1F58D2FF1F34D3FF1F1A
:1017E00048D3FF1F04D3FF1FD4D2FF1FF4D3FF1F22
:1017F0005CD3FF1F18D3FF1FF8B50446104D00231C
:101800004FF480763220262223706370A3706372B7
:101810000F46606022722946324604F10A0002F047
:10182000D5FF3246A91904F5857002F0CFFF04F503
:10183000047001F057FAC4F80C722046F8BD00BFDE
:10184000DCB700002DE9F04100218CB00646417262
:10185000684605F047F9D6F80C228E4904A8012302
:1018600001F09CFB0CAA9DF8140012F8143D069997
:1018700086F8140286F81C32C6F8181206F21D23E8
:1018800006F22A2012F8011F03F8011B9842F9D131
:101890000B9BC6F82C3204A801F032FA00252F4623
:1018A00006F50474204601F097F9002836D020464A
:1018B00001F0B0F9C1B25B2939D021293ED0012D08
:1018C00046D0022DEED10A2938D10721724804F002
:1018D00011FC6946714805F053F80121704804F085
:1018E00009FC6E4805F072F86E4904A805F0FAF894
:1018F00004A9684605F084F9054604A805F0B2F885
:10190000002D4DD0012373706749684605F00CF92E
:101910002046002501F060F90028C8D1204601F0DA
:10192000F1F9684605F09EF80CB0BDE8F081737AD5
:101930000F2B08D9012D06D0022DB3D1684605F032
:1019400035F90225AEE7684605F030F90125A9E72B
:101950002C2914D05D29F6D1757A684605F0B0F9C6
:1019600007EBC50506EB45054F496881684605F05C
:10197000DBF8737A0027013373723D4692E796F8DD
:101980000980684605F09CF907EBC80806EB480893
:101990004549A8F80A006846013705F0C5F881E70F
:1019A000424904A805F09EF804A9684605F028F904
:1019B000054604A805F056F8C5B10123B3702021EF
:1019C000684605F041F9021E9EDD694604A805F04F
:1019D0006FF904A805F074F9706004A805F042F8E6
:1019E0007368042B37DC052373608DE7304904A846
:1019F00005F078F804A9684605F002F9054604A840
:101A000005F030F8BDB12021684605F01DF9021E31
:101A10007FF77AAF694604A805F04AF904A805F0F3
:101A20004FF9307204A805F01DF8337A0B2B2AD831
:101A30000C23337268E71F4904A805F053F804A982
:101A4000684605F0DDF8054604A805F00BF855B129
:101A50000123337058E7B3F5967F7FF755AF4FF406
:101A60009673736050E70F21134804F043FB6946F7
:101A70000A4804F085FF0121104804F03BFB0748A9
:101A800004F0A4FF40E7482B7FF63EAF48233372B3
:101A90003AE700BF8CD4FF1FDCB90000F8C0FF1F7D
:101AA00074BD0000E4B9000094BA0000ECB9000075
:101AB000F4B90000FCB9000004BA000014BA000038
:101AC00010B5044688B0D0F80C129E4801F0E6FA32
:101AD000D4F80C229B496846132301F05FFA08AA48
:101AE0009DF8040012F8143D029984F8140284F859
:101AF0001C32C4F8181204F21D2304F22A2012F832
:101B0000011F03F8011B9842F9D1079BC4F82C323E
:101B1000684604F5047401F0F3F83C228A49204633
:101B200001F066F8204604F051FF3C228749204628
:101B300001F05EF8204604F049FF3D22844920462A
:101B400001F056F8204604F041FF3D22814920462D
:101B500001F04EF8204604F039FF3C227E49204631
:101B600001F046F8204604F031FF00227B49204670
:101B700001F03EF8204604F029FF3E227849204635
:101B800001F036F8204604F021FF3E227549204638
:101B900001F02EF8204604F019FF3E22724920463B
:101BA00001F026F8204604F011FF3E226F4920463E
:101BB00001F01EF8204604F009FF3D226C49204642
:101BC00001F016F8204604F001FF00226349204688
:101BD00001F00EF8204604F0F9FE2822654920465F
:101BE00001F006F8204604F0F1FE33226249204657
:101BF00000F0FEFF204604F0E9FE2F225F49204658
:101C000000F0F6FF204604F0E1FE33225C49204656
:101C100000F0EEFF204604F0D9FE19225949204673
:101C200000F0E6FF204604F0D1FE00224B4920469A
:101C300000F0DEFF204604F0C9FE1522524920467E
:101C400000F0D6FF204604F0C1FE15224F49204681
:101C500000F0CEFF204604F0B9FE19224C49204680
:101C600000F0C6FF204604F0B1FE19224949204683
:101C700000F0BEFF204604F0A9FE1A224649204685
:101C800000F0B6FF204604F0A1FE1A224349204688
:101C900000F0AEFF204604F099FE1D224049204688
:101CA00000F0A6FF204604F091FE19223D4920468F
:101CB00000F09EFF204604F089FE19223A49204692
:101CC00000F096FF204604F081FE18223749204696
:101CD00000F08EFF204604F079FE18223449204699
:101CE00000F086FF204604F071FE1922314920469B
:101CF00000F07EFF204604F069FE18222E4920469F
:101D000000F076FF204604F061FE13222B492046A6
:101D100000F06EFF204604F059FE1D22284920469F
:101D200000F066FF204604F051FE26222549204699
:101D300000F05EFF204604F049FE204600F0E2FF7E
:101D400008B010BD8CD4FF1F18BA000058BA0000AC
:101D500098BA0000D8BA000018BB000094BA00007E
:101D600058BB000098BB0000D8BB000018BC0000A6
:101D700058BC000098BC0000C4BC0000F8BC0000C7
:101D800028BD00005CBD000078BD000090BD0000D3
:101D9000A8BD0000C4BD0000E0BD0000FCBD000007
:101DA00018BE000038BE000054BE000070BE000027
:101DB0008CBE0000A8BE0000C4BE0000E0BE000053
:101DC000F4BE000014BF000010B588B089B900F15E
:101DD000080300F5847403F11001B3F9022123F81C
:101DE000022F8B42F9D19C42F5D11023437208B0E7
:101DF00010BD04460E490F4A6846012301F0CEF893
:101E0000D4F80C120A4801F03DF938B12046FFF72A
:101E100019FD684600F074FF08B010BD2046FFF7BA
:101E20004FFE2046FFF70EFD684600F069FFF3E71E
:101E30008CD4FF1F3CBF000000220A218180026079
:101E40008271C271704700BF10B504460023C8B24A
:101E500082B0E071A37103F021F908B10323A371EB
:101E6000034B1B680193019B236002B010BD00BFB0
:101E7000FCD6FF1F81807047F0B5044685B0C0795D
:101E800003F00CF9A279003018BF0120C2F3400121
:101E900002F0F7038842A3710BD0124A1268019234
:101EA00083F00203019AA3712260C3F3C00005B05E
:101EB000F0BD0C4D2768296802910299A688C91BBC
:101EC000B142F2D302F001029042EED02A680392AE
:101ED00083F00903039AA371C3F3C000226005B025
:101EE000F0BD00BFFCD6FF1F807900F00900A0F113
:101EF0000900B0FA80F04009704700BF2DE9F04FAB
:101F0000002183B0054604F0CDFA0090002800F0CF
:101F1000FB802B7F002B00F08C80009A02F58273EF
:101F200002F1040A9A4501937CD2DDF804E056E000
:101F30002B7F022B00F08280032B66D0042B00F055
:101F40008880052B00F09680062B00F0E080072BA0
:101F500000F0A180012B00F0B2806B6A2A6A5B144A
:101F600003EBA2329C1818191F1803EB070C03EBA4
:101F70000C0699190B444FF6FF7BDAF80090DAF85B
:101F8000048032FB09F234FB19F4C2EA044230FB4C
:101F900008F037FB18F7C0EA0747DAF808003CFBFF
:101FA00000F0DAF8084036FB14F6C0EA0646DAF824
:101FB0000C0031FB00F133FB10F3C1EA03438AE864
:101FC0008400CAF80860CAF80C302A6A6B6AA5F85F
:101FD0001EB013440AF1100A2B62D64522D9E98BB0
:101FE0000029A5D06B6A2A6A5B1403EBA2329C1805
:101FF00018191F1803EB070C03EB0C0601F1FF3B4C
:1020000099191FFA8BFB0B44B7E72B6BEA8DEA8318
:102010004FF00401D64503F14043297793FBF2F3D7
:102020006B62DCD8009C28460022214604F014FA9A
:10203000204603B0BDE8F04F04F0E4B9AB8DEB836C
:10204000002BE2D003234FF080422A6269622B7793
:10205000C3E72B6B69624FF005022A779A132B6254
:1020600011461346164694461746104614464FF638
:10207000FE7B82E76B6A2A6A5B1403EBA2329C1830
:1020800018191F1803EB070C03EB0C0699190B44E6
:102090004FF6FE7B71E72B8D2962EB83D3B103F101
:1020A000FF3B4FF001022A770B461FFA8BFB696258
:1020B0000E468C460F4608460C460A465DE76B8D79
:1020C000EB834FF002022A774FF0804292FBF3F34A
:1020D0006B6282E7B5F82AB04FF0804393FBFBF3C5
:1020E0005A1454001019171802EB070C02EB0C06D7
:1020F0000BF1FF3B91194FF002086B6285F81C80D1
:102100001FFA8BFB531838E703B0BDE8F08F019B33
:102110002977534586D9CAF80010CAF80410CAF8BE
:1021200008100AF1100A53454AF8041CF3D879E75D
:1021300072B6037F012B0DD9C28E5AB1072B07D07F
:10214000036AC28307215B42017793FBF2F242628A
:1021500062B67047038DC3830022026223B101235C
:102160004262037762B67047428DC28302214FF00C
:102170008043017793FBF2F3436262B6704700BF7E
:1021800010B5044604F0E0FA204610BD024A0349A7
:10219000034807F0A5B800BFFCBDFF1F8121000068
:1021A00008D4FF1F38B5074D074C08482A4621467A
:1021B00007F096F82A4621460548BDE8384007F062
:1021C0008FB800BFFCBDFF1F8121000010D4FF1F8E
:1021D00018D4FF1F024A0349034807F081B800BF23
:1021E000FCBDFF1F8121000020D4FF1F024A0349CC
:1021F000034807F075B800BFFCBDFF1F8121000038
:1022000028D4FF1F024A0349034807F069B800BFFA
:10221000FCBDFF1F8121000030D4FF1F024A03498B
:10222000034807F05DB800BFFCBDFF1F812100001F
:1022300038D4FF1F2DE9F8434FF00008064600F19F
:102240001805474641463046002F4FD004F01EF98E
:10225000F0B12C68B4F5803F07F1040100F1040EE1
:1022600007F5827C27D05EF8042B34FB02F334FBA5
:1022700012F903F30F0209F30F03C2EA03430A68DA
:1022800093FA12F341F8043B8C45ECD804F0BAF809
:1022900008F10108B8F1040F05F10405D2D1002FAF
:1022A00040D030463946002204F0D6F83846BDE822
:1022B000F84304F0A7B807F10C0100F10C0451F841
:1022C000083C54F8082C93FA12F341F8083C54F8EF
:1022D000042C51F8043C93FA12F38C4541F8043C69
:1022E00004F1080401F10801E9D8CFE704F0DAF8B5
:1022F00007460028CCD02868B0F5803FC8D0391DEB
:1023000007F582740B6830FB03F230FB13F302F322
:102310000F0203F30F03C2EA034341F8043B8C426C
:10232000F0D8B5E7BDE8F883024A0349034806F050
:10233000D7BF00BFFCBDFF1F8121000040D4FF1F9D
:1023400010B5002104F0A2F870B172B60A4B1A68F9
:1023500072B10A490C6844B11C60086062B610464C
:10236000BDE8104004F04EB810BD086062B610BD64
:10237000186062B610BD00BF58D4FF1F48D4FF1FBD
:1023800038B5184B18491A68184C12681B79184D43
:102390000B70A242286836BF2246A4F5807202F56F
:1023A0008074C0B1011D31F9023B03F500431B11DC
:1023B00022F8023B9442F6D804F024F80D4B002298
:1023C000196829601A600C4B1B781BB10B4B4FF03E
:1023D00080421A6038BD4FF4006322F8023B9442F9
:1023E000FBD8F0E74CD4FF1F1F800040C8B5FF1F8B
:1023F00058D4FF1F48D4FF1F54D4FF1F08E200E049
:10240000F8B501214248434E04F03AF9424A4349A3
:102410001368802043F4805313600024087040F652
:10242000080534800120083402F04CFEA3B2AB4210
:102430001CB2F6D13A4B1B685B0208D5394B1A68BF
:1024400048F6A273134048F6A27293424FD0344923
:10245000344A0B68344F354D3548364C43F48003CD
:102460000B604FF0010E40F23F4648F6A37140F278
:102470000113C7F800E02E60116014600360244C63
:102480002D4A236823491A6002259D80227919610B
:1024900002F1804202F50432284EDE6040F2011162
:1024A000D9804FF4807000210627B026D8829D6025
:1024B000D88399829F8399611170167004F086F811
:1024C00022791F4B1F4E187053119B0003F160437C
:1024D0001D4C327003F5614302F1100002F01F073A
:1024E00001211A4D44F82050B9401960F8BD0F4B36
:1024F0001A6840F23F439A42A9D10B4B1B68012B4B
:10250000A5D10B4B1A6840F201139A429FD1B6E74E
:102510004CD4FF1F00C00C402C80044021C00C4054
:102520003C800440006003400C60034004600340B2
:1025300010600340A28F0100C8B4FF1F00FEFFFF20
:1025400054D4FF1F1B80004000B8FF1F81230000F0
:10255000024A0349034806F0C3BE00BFFCBDFF1F8B
:10256000812100004CD4FF1F024A0349034806F0B2
:10257000B7BE00BFFCBDFF1F812100005CD4FF1F60
:10258000024A0349034806F0ABBE00BFFCBDFF1F73
:102590008121000064D4FF1F024A0349034806F06A
:1025A0009FBE00BFFCBDFF1F812100006CD4FF1F38
:1025B000024A0349034806F093BE00BFFCBDFF1F5B
:1025C0008121000074D4FF1F024A0349034806F02A
:1025D00087BE00BFFCBDFF1F812100007CD4FF1F10
:1025E000024A0349034806F07BBE00BFFCBDFF1F43
:1025F0008121000084D4FF1F2DE9F04F436AC46994
:10260000866985B02BB906EBC414846105B0BDE8BA
:10261000F08F0546D0F8208003F0A0FE0746002882
:1026200000F04781B5F9323006EB0802009200F164
:102630000408082B31D8DFE813F09B00B800000134
:1026400014010900C500DB00E9005000EE6A002E0D
:1026500000F02D81D5F824C0009900F5827E404617
:102660000A0E531CB3F5807F14BF5B000023C1F337
:102670000F29F35E36F9122009FB03F3C9F58039FF
:1026800009FB023353FB0CF320F8023B7045214455
:10269000E6D1009B03EBC41300932C6A009AB5F9B2
:1026A0003430141BAC616BB107F5827101E0B5F9F0
:1026B0003430B8F90020134403F30F0328F8023B29
:1026C0004145F4D828460022394603F0C5FE384675
:1026D00005B0BDE8F04F03F095BEAB6ACDF80880B9
:1026E0004FEA5309190C6FEA09020192C1F57F43C1
:1026F0004FF0FF3A4646FF33D5F824C0BAFBF3F358
:10270000063007F5837B009ABAFBF1FA03979E46E1
:10271000DDF8048020E0C9EB02073F0C0EFB07F751
:102720006FF0004109EB0203C91B1B0C09140AFBE3
:1027300003F30CFB01F103F1004390454FEA214103
:102740004FEA234340F2AE80318002308345224479
:1027500006F1020600F0B280130C0AFB03F31B0C17
:102760000CFB03F391454FEA1343D4D93380ECE7D4
:10277000D5F824C0554E009900F5827E40460B0ED8
:102780005A1C36F9139036F91220C1F30F2ACAF5F4
:10279000803309FB03F30AFB023353FB0CF320F8ED
:1027A000023B86452144EAD173E76E6A009A00F540
:1027B0008270434636FB12F123F8021B8342224407
:1027C000F8D166E76E6A26F34F06A86A009A0FFAF8
:1027D00086FEBB1D764207F5837190428CBF23F8BD
:1027E00002EC23F8026C02338B422244F5D150E70D
:1027F000686A009A07F58276C043434630FB12F1BF
:1028000023F8021BB3422244F8D142E700F5827A52
:10281000009BC14603E0D14533463FF43AAFB5F9DA
:10282000302029F8022BE618F5D3686A04F016F96F
:102830006B6AA0EB63002886EDE76E6A26F34F060D
:10284000009A30B2BB1D764207F58371002AB4BFEF
:1028500023F8026C23F8020C023399422244F5D18A
:1028600017E7811DD5F824C0009A00F5837009E0B0
:102870000CFB03F31B1421F8023C02318842224472
:102880003FF407AF930F013B012B4FEAE233EFD840
:10289000D30BC3F57F43FF330CFB03F31B0C21F871
:1028A000023CEAE70CFB03F31B1433804DE703F013
:1028B000A9FDAB6903EBC413AB61A7E6009BDDF890
:1028C0000880039F03EBC4130093E6E640BF0000BB
:1028D00010B4047F4160022CC26002D010BC03F02F
:1028E0004DBF836810BC1847F0B4464B464A186B7E
:1028F000DC6A01791170454922790A709A6A007977
:102900000870002A46D05968C9688A423ED82168B2
:10291000CC8B240402F1FF3065D4C0F30E00C883D1
:10292000C88B80B2C882196B0968C88B000452D466
:10293000C2F30E00C883C88B002480B212F1FF32AC
:10294000C88218BF01229C62D96A2E4809680D68A6
:1029500000F12404A54236D00068C46814F0804F0A
:102960000C680D6815BF248824780235013544F0C1
:1029700000440D604463196B254B09791970214996
:1029800012B1CA6A12791A70F0BC7047521A9A6270
:102990000122D9E7586B196805681E4C0A63CC629E
:1029A000CC682D681C4E24F080440327B542CC60CF
:1029B00083F825701FD1037F4260022BC2601ED0B6
:1029C000F0BC03F0DBBE016890F82400CC6840F056
:1029D00000404863CFE7CC8BC2F3080004F47E4488
:1029E0002043C883A7E7CC8BC0F3080004F47E44DF
:1029F0002043C88394E72B461146F0BC18478368F0
:102A0000F0BC1847F8BEFF1F1F8000401C8000402C
:102A10001B80004000000FFFD128000090E80C0050
:102A2000F0B41C6859682568164F174E2943216079
:102A3000164D17491760D66015611160417A154A25
:102A40005C180A3194F8244053F8215002EBC40179
:102A500049680D60017A5C1803EB8101247ECD6921
:102A600002EBC40149680D60817A581803EB8103B9
:102A700090F83000596B02EBC002F0BC536819604B
:102A8000704700BF01401F0001100038011000789E
:102A900000001F80D8C20000204A43689A42F0B468
:102AA0000FD0427A1A4492F82420914207D093F82A
:102AB00024408C4215D093F825408C422AD0F0BC9B
:102AC00070470B2907D00729EBD1154C227842F02B
:102AD00001022270E5E7124C227822F001022270F6
:102AE000DFE7002421461E685D6836682E420FD05D
:102AF0000C4D05EBC202002756685A18376092F851
:102B0000242005EBC2050A316A6853F821301360AE
:102B10004472D4E701242146E5E700BF74C10000F8
:102B200050D8FF1FD8C20000204A43689A42F0B430
:102B30000FD0827A1A4492F83020914207D093F84D
:102B400030408C4215D093F831408C422BD0F0BCF1
:102B500070470D2907D00E29EBD1154C227842F091
:102B600004022270E5E7124C227822F0040222705F
:102B7000DFE7002421461E685D6836682E4210D0CB
:102B80000C4D05EBC202002756685A18376092F8C0
:102B900030200C3105EBC20503EB81036A685B68EA
:102BA00013608472D3E701242146E4E774C1000076
:102BB00050D8FF1FD8C2000000207047704700BFE8
:102BC00010B582B002AB026803F8011D54681946C3
:102BD0000122A04702B010BDC06938B18369C06846
:102BE00047F6FF72181A904228BF1046704700BF80
:102BF000C36910B504463BB100201871E06901F0CB
:102C00006FF9E3691B791BB101232371002010BD0B
:102C100010BD00BFC06978B100B583B001220DF1CD
:102C2000070100F005FF01280CBF9DF807004FF0D9
:102C3000FF3003B05DF804FB4FF0FF30704700BF7A
:102C4000C369C3B110B582B00446012218460DF124
:102C5000070100F0EDFE012803D04FF0FF3002B075
:102C600010BDE0699DF80740C168013900F092FF8E
:102C7000204602B010BD1846704700BFC06908B1B9
:102C800000F0BABF704700BF2DE9F04105464FF490
:102C90007A731348AB60002328602B712B732420B8
:102CA0000C46904606F05EFBE861B0B1064604F1C2
:102CB000200E20686168A268E36837460FC71034A9
:102CC00074453E46F5D12068386041460C2205F136
:102CD0000D0007F0B3FA00236B762846BDE8F081BB
:102CE000F4C100004FF47A7204498260002201604E
:102CF00002710273C2614273704700BFF4C10000E9
:102D0000704700BFC36953B110B50446184600F0C0
:102D100017FEE06906F02EFB0023E36110BD70474B
:102D200030B58BB000240A460A4D8DF808400146A4
:102D3000012301A88DF80A40019501F091F8A04205
:102D400018BF012402D001A800F0FAFD20460BB004
:102D500030BD00BF18C200000AB90120704708B595
:102D600001F0A6F8003018BF012008BDF0B50E68CC
:102D7000835D2F2B08BF0136841902F1FF3E002529
:102D800023782F2B274604F1010408D03BB10135ED
:102D90000C2D06F101060EF8013FF1D18719002331
:102DA00053553B782F2B04BF013687190E603878B6
:102DB000003018BF0120F0BD2DE9F04F99B08846D2
:102DC000264D069500218DF81C10834692469946A3
:102DD00044468DF81E108DF840108DF84210019178
:102DE0000F9506AE05E000F0ABFDFDB1234634467D
:102DF0001E4602AA01A95846FFF7B8FF80F001025B
:102E0000D2B24B4602A905462046D0472146074686
:102E1000012302AA70B13046ADB101F021F844455A
:102E200005462046DFD10DB10FACDFE7002019B019
:102E3000BDE8F08F4445F9D0204600F081FD3846CA
:102E400019B0BDE8F08F444506D0204600F078FD6B
:102E5000012019B0BDE8F08F0120E8E718C200009A
:102E600038B50A460121044600F070FA08B900207E
:102E700038BD251D28460122214601F0F3FA40B154
:102E8000294604F12C0000F0ABFD003018BF0120F2
:102E900038BD02462146284601F0E4FA0028EFD169
:102EA000002038BD2DE9F04F99B04FF00008DFF851
:102EB000E8A08DF81C808146043106A89346019352
:102EC0008DF81E808DF840808DF84280CDF818A0D6
:102ED000CDF83CA000F084FD06AE5D460FAF2F217B
:102EE000284607F00FF8441BE4B2294608B32B78B4
:102EF0002F2B02A81BD00C2C28BF0C24224607F035
:102F00009DF918AB2344384603F8588C00F018FD9F
:102F1000012302AA3146384600F0A2FF88B33046AA
:102F200000F00EFD334625443E461F46D7E70135E7
:102F3000D5E7019831797279B379B468377DCBEBF5
:102F400005050560F068356989F8041089F80520E1
:102F5000B16989F80630F269336AC9F80C0048464D
:102F6000C9F800A0C9F80840C9F8105089F81470D1
:102F7000C9F81810C9F81C20C9F8203019B0BDE8EC
:102F8000F08F89F8040089F806004846C9F800A0C7
:102F900019B0BDE8F08F00BF18C20000F0B59DB0B9
:102FA00005461F4601A86B461446FFF77BFF009AB3
:102FB000A35C1444002B42D09DF80A202F4E0A96A1
:102FC00000238DF82C308DF82E30002A31D00AA83D
:102FD0003B46224601A900F043FF50B301A800F090
:102FE000AFFC17F0060F43D19DF82C700C9B9DF899
:102FF0002DE0139622469DF82E408DF850708DF8E6
:10300000524015930D990E989DF83C70109E119C9E
:10301000129B8DF851E01691179013A928468DF850
:10302000607019961A941B93FFF72EFE28461DB068
:10303000F0BD2846FFF756FE28461DB0F0BD9DF8AE
:1030400008700E4E9DF809409DF80A30039A8DF8DD
:10305000507013968DF851408DF8523015920499A6
:1030600005989DF81870079E089C099B044AD2E7B2
:103070000AA8109900F08EFDB6E700BF18C2000044
:103080003CBF000010B40C46002300F12C01024AA2
:10309000204610BCFFF790BE212D000010B40C4656
:1030A000002300F12C01024A204610BCFFF784BE29
:1030B000592D0000064B074ADA62022100225960AE
:1030C0009A7083F8242083F8302083F832207047E8
:1030D0008CD4FF1F18C20000052823D8DFE800F0B9
:1030E000030310161C0A124B12484FF038421A60A4
:1030F000FFF794BC0E4B104A1A600E48FFF78EBCC7
:103100000B4B0E4A1A600B48FFF788BC084B0C4A61
:103110001A600848FFF782BC054B0A4A1A60054846
:10312000FFF77CBC024B084A1A600248FFF776BCE6
:10313000E0D4FF1FF8BEFF1F032001380000013854
:1031400001100138032000380650003810B5012165
:10315000007801F09DFF0E4A137893B10D49CB7AA8
:1031600000241846147063B1DC0703D50A4A886945
:10317000106018469A0705D4430702D5074B0A6A20
:103180001A6010BD064BCA69C87A1A60F4E700BF1E
:10319000E4D4FF1FF8BEFF1F00E100E008E100E0FB
:1031A00004E100E01E4B1A781AB10078002101F00A
:1031B0006FBF70B41B4A1C49D47A096801251D7081
:1031C000ECB172B6D37ADE071C4606D5174DD4682B
:1031D0002E68344094612C601C469D0706D5144D22
:1031E00013692E68D47A3340D3612B60630705D509
:1031F000104C536925682B401362236062B6136834
:10320000DA688A4207D00C4C1C600C4AD96041F045
:1032100080441C611A600078002170BC01F038BF46
:10322000E4D4FF1FF8BEFF1FE0D4FF1F80E100E0E1
:1032300084E100E088E100E001403F0000003F80C1
:10324000F0B41248124A036882B016460093009FF9
:103250004FF00045FF24136843F480631360D56288
:103260005463D36A002BFCDAB36BDBB2FF2B09D0BB
:1032700003680193019BDB1B8B42ECD3002002B05F
:10328000F0BC7047012002B0F0BC7047FCD6FF1FB5
:1032900000C00240F8B50D464FF49671164604463C
:1032A000FFF7CEFF284B1A684FF0004042F48062CF
:1032B00045F040011A60D8621A465963D36A002B60
:1032C000FCDA214918204FF000470A6826FA00F37B
:1032D00042F48062DBB20A60CF624B63CB6A002BA0
:1032E000FCDA083810F1080FEFD155B3082D0CBFE8
:1032F0008721FF21144B1A684FF0004042F480628E
:103300001A60D8621A465963D36A002BFCDA0E4A57
:10331000002716464FF00045FF21136843F48063F1
:103320001360D5625163D36A002BFCDAB36BD8B259
:103330001B06607000D4F8BD0137B7F5807FECD173
:10334000F8BD9521D6E700BF00C002402DE9F0434B
:103350000023934E027085B0837033680193054655
:10336000884610460121019F01F092FE2878012134
:1033700001F0A2FE2878012101F08AFE894A136833
:1033800043F4805313600620FFF7A6FEDFF840E207
:10339000854B9EF80BC01A68BCF1000F20D072B6A6
:1033A0009EF80B30DC07194608D58048DEF80C1073
:1033B00004682140CEF8181001601946980709D515
:1033C0007B48DEF8103004689EF80B102340CEF8DE
:1033D0001C300360490700F1A28062B69EF80BC062
:1033E000DEF80030D968914207D0724818607249FF
:1033F000DA6042F0804018611960704A0A244FF088
:103400000040FF21136843F480631360D06251636E
:10341000D36A002BFCDA013C14F0FF04F2D1BCF1BA
:10342000000F18D01CF0010F05D0654BDEF81820F6
:103430009EF80BC01A601CF0020F05D0614BDEF83D
:103440001C209EF80BC01A601CF0040F03D05E4BCA
:10345000DEF820201A602846FFF7A4FE06E0336855
:103460000293029BDB1BB3F5FA6F51D80022114681
:103470002846FFF70FFF012881466870EFD14FF40F
:10348000D57208212846FFF705FF430726D585F8A2
:1034900002904FF0000906E033680393039BDB1BA7
:1034A000B3F5FA6F34D8002237212846FFF7F2FE31
:1034B0004A4629212846FFF7EDFE68700028EBD127
:1034C000AB78022B39D02846FFF740FE4046FFF785
:1034D00003FE0124204605B0BDE8F083374A0421ED
:1034E00094464FF0004EFF20136843F4806313604E
:1034F000C2F82CE05063D36A002BFCDADCF83830D9
:103500000139DBB211F0FF016B70EDD1AA2B0FD0A6
:103510002846FFF71BFE204605B0BDE8F0832B4987
:10352000DEF8143008680340CEF820300B6054E712
:103530000223AB704FF08049B5E702463A21284696
:10354000FFF7A8FE0028E3D11C4B1A684FF0004497
:1035500042F48062FF201A601946DC625863CB6A2D
:10356000164A002BFBDA936B144A03F0C003C02BFE
:1035700004BF0323AB70032116464FF00044FF2025
:10358000136843F480631360D4625063D36A002BE2
:10359000FCDA013911F0FF01B36BF1D193E700BF01
:1035A000FCD6FF1F3C800440E0D4FF1F80E100E018
:1035B00084E100E001403F0000003F8000C0024085
:1035C00000E100E004E100E008E100E088E100E063
:1035D000F8BEFF1FF0B41549154A0B6882B01646B5
:1035E0000093009F4FF00045FF24136843F480636D
:1035F0001360D5625463D36A002BFCDAB36BDBB281
:10360000FF2B43700AD10B680193019BDB1BB3F5C1
:10361000967FEAD9002002B0F0BC7047A3F1FE000B
:10362000B0FA80F0400902B0F0BC7047FCD6FF1F32
:1036300000C00240F8B58378032B0E46044618BF3D
:103640004E021546FFF7AEFD324611212046FFF728
:1036500021FE18B92046FFF7BDFF20B92046FFF72D
:1036600075FD0020F8BD204B2049214A1A608E4686
:1036700059631A4659631E46596305F5FD70A91C26
:1036800005F5FE77D36A13F0F00FFBD0C6F834E0EF
:10369000B36B01F8013C1B1201F8023C02318F426E
:1036A000F0D105F50075A8420DD20F4A1646D36A2F
:1036B00013F0F00FFBD0B36B191200F8021BA842F5
:1036C00000F8013CF3D3084B0949084A1960194630
:1036D0005A63CB6A044A13F0F00FFAD02046936B7A
:1036E000FFF734FD0120F8BD00C00240FFFF00904D
:1036F00000041F80F0B4314E33684FF0004743F4AC
:10370000806333603D46F762344671633346511C33
:1037100002F20127E26A002AFCDA1A6811F8016C49
:1037200042F480621A60DD625E63E26A002AFCDABB
:103730001A6811F8026B42F480628F421A60DD62EF
:103740005E63E7D11D49CA6A1C4B002AFBDA1A687E
:103750004FF0004542F48062FF241A601946DD6292
:103760005C63CB6A154A002BFBDA13684FF0004507
:1037700043F48063FF2413601146D5625463CB6A1F
:103780000E4A002BFBDA13684FF0004543F48063C8
:10379000FF2413601146D5625463CB6A074A002B9D
:1037A000FBDA936BDBB203F01F024370A2F105005A
:1037B000B0FA80F04009F0BC704700BF00C0024082
:1037C00070B5044671B18378032B0D4618BF4D02C6
:1037D0001646FFF7E7FC2A4618212046FFF75AFD58
:1037E000054620B12046FFF7B1FC002070BD3246EF
:1037F000FE212046FFF77EFF0028F3D04FF416711C
:103800002046FFF71DFD0028ECD02A460D2120465A
:10381000FFF740FD0028E5D10B4B1A684FF000453B
:1038200042F48062FF201A601946DD625863CB6A59
:10383000054A002BFBDA936B13F0FF0FD2D1204621
:10384000FFF784FC012070BD00C00240014B024A1A
:103850001A607047E0D4FF1F0110013838B590F9A5
:103860000530002B03DBBDE8384000F031BC0446D6
:103870000121006900F056FCF8B1257D104B13EBD7
:1038800045151AD0A3790F4A012B9CBFA369EB61A0
:10389000E36912686B831B0CAB8232B105F1160130
:1038A00005F1180090472B8B6B82637903F07F033F
:1038B0006371BDE8384000F00BBC002038BD00BF8C
:1038C000F4D4FF1FE8D4FF1F10B500F1080204462E
:1038D0000121006A00F010FD50B1E3693BB9637942
:1038E000A268E26163F07F036371012010BD0120D3
:1038F00010BD00BF70B50646FFF7E6FF98B1326A0B
:10390000B568117C53691479023D8D40013B74B157
:103910001D4402E014F0FF0407D0601900F068FCB9
:10392000013C0028F6D1002070BD336A197CB069D3
:103930004FF4007202FA01F30344B361012070BD39
:1039400082790AB90020704710B50446FFF786FF58
:1039500018B10023A371012010BD002010BD00BFCD
:1039600070B44B1E01F10A04202203F8012FA34278
:10397000FBD101380025072610F8014F2CB32E2C5F
:103980001ED0164A01E09C4217D012F8013B002BD2
:10399000F9D1AE421FD3A4F121025D2A1BD8A4F1B4
:1039A0006102192A05F1010398BF203C0D44DBB2E6
:1039B00098BFE4B22C701D46DEE7002070BC704753
:1039C0000A2EFAD008250A26D6E70B78B3F1200094
:1039D00018BF0120F2E71846F0E700BF28C2000038
:1039E00038B583793BB991F82020102A0D4604465A
:1039F00003D0202A10D0002038BD022282714A8CC8
:103A0000C361530183610023012060712375256226
:103A1000A360E360236138BD03238371496AC161F8
:103A200000F11802284600F037FC0028EBD1E2E74D
:103A3000837913B94FF0FF3070472DE9F04F8B4673
:103A40004179C90783B0054658D5C1688469641AAD
:103A5000944228BF144626460194002C64D01A468E
:103A6000022ADFF8E890384FDFF8E4802A6AC1F3D1
:103A7000080A3FD01479013C04EA5124E4B2BAF1B7
:103A8000000F5ED1002C5CD1002951D1E969A960F9
:103A9000107C52690239814014440819CAF5007437
:103AA0006A79B442A8BF344653062CD4B4F5007FDB
:103AB00029D0002100F036FB00B30AEB090E0EEB13
:103AC000040086450BD00BF1FF32734613F8011B3F
:103AD00002F8011F9842F9D1CEEB00008344E96857
:103AE000361B2144E9601FD0AA79022AC1F3080AD3
:103AF0002A6ABFD1506A00EB5120CFE74FF0FF3068
:103B000003B0BDE8F08F3A689042D2D001465A46E1
:103B1000D8F80000FFF78EFD0028EFD0E968361BCB
:103B20002144A344E960DFD1019803B0BDE8F08FE0
:103B30001046A96805F1080200F076FB0028DDD0E8
:103B40002A6AA968A4E700BF30BFFF1FF4D4FF1F93
:103B5000F0D4FF1F8379012B17D930B5C36883B028
:103B600001220DF107010446C3F34315FFF760FF7F
:103B7000012802D0002003B030BDE36804481F33A1
:103B800000EB4510E36003B030BD0020704700BF7C
:103B9000F4D4FF1FF8B5837913B182698A4201D248
:103BA0000020F8BD022B0F4605461AD007B32B6A3A
:103BB000E9681C7C4A1E04F109037C1EDA40DC40E3
:103BC000A24211D9EB69AB6005F1080606E0A968CD
:103BD000286A00F029FB013C0028E1D03246002C85
:103BE000F5D1EF600120F8BD0029EBD0A41AEBE776
:103BF000AF60EF600120F8BD83790BB1FFF72EBEF7
:103C0000184670478379012B01D000207047F0B52A
:103C10004579AC0783B002461CD585698D420C46B8
:103C200018D3D5B12546D6681446FFF7B3FF88B13F
:103C3000B5B9E169206A00F0E7FB58B1E56122E01F
:103C400000F0E2FB30B16FF07042A168206A00F032
:103C5000CBFBC0B9002003B0F0BD184603B0F0BDE7
:103C600001AAA168206A00F0DFFA0028F2D0206AD9
:103C70000F4B90F8207001994FF6F872102F08BF83
:103C800013469942DCD36379A279A56163F07F037F
:103C90006371002ADED02046FFF7E0FD0028D9D06E
:103CA000B5422946204628BF3146FFF773FFD2E7C9
:103CB000F8FFFF0F70B51D4B03EB4116F37A13F0BD
:103CC000110F02D012F0420F1ED1194B01751B6863
:103CD0000361738BB18A43EA0141C161F37A13F046
:103CE0001803154604460DD1F369836101238371DE
:103CF00005F00F03002163716B06A160E1600FD432
:103D0000012070BD102B01D0002070BD00F1180201
:103D1000006A00F0C1FA0028F6D00423A371E7E797
:103D20002046BDE87040FFF76DBF00BFF4D4FF1F11
:103D300030BFFF1F2DE9F04784B001AF06460C46A7
:103D4000104639469946FFF70BFE78B30022216AE8
:103D5000316213461546A260E260DFF8008108E098
:103D6000E52B1CD001460B22384605F0D9FD88B35F
:103D7000E368A2699A421DD92046C3F3431AFFF7AC
:103D8000E9FE98B10378002BEAD15DB9D8F800308C
:103D900086F814A03361037823B10125E8E7002DEC
:103DA000FBD1F3E709F01203122B1DD0002004B061
:103DB000BDE8F08709F01203122BF7D1A5B9A3795A
:103DC000022BF3D02046FFF795FD0028EED0214CC2
:103DD000357514E009F03003302BE7D04A465146E0
:103DE0003046FFF767FFE2E70121306900F09AF9FA
:103DF0000028DBD0347D174B13EB4414D6D020229F
:103E00000021204605F022FE97E80700234603C361
:103E1000114923F8022B0D68120C1A709DB104F1A0
:103E20000E0104F11000A847238AE28963822383EC
:103E3000E28200F04DF90028B8D04A46317D304684
:103E4000FFF738FFB3E742F621034FF40062238205
:103E5000E281EBE7F4D4FF1FE8D4FF1F30BFFF1F60
:103E600010B4847914B1002010BC704710BCFFF767
:103E700061BF00BF10B500210446FFF7C3FE08B9BB
:103E8000002010BD0121206900F04CF90028F7D076
:103E9000237D064A5B01DA42F2D0E52098540021E6
:103EA000A171BDE8104000F013B900BFF4D4FF1FAA
:103EB00030B58BB000240A46084D8DF80840014605
:103EC000022301A88DF80A400195FFF733FF10B1D6
:103ED00001A8FFF7CFFF0BB030BD00BF18C2000034
:103EE0002DE9F04F8B46817985B001290746019273
:103EF00005D001233B71002005B0BDE8F08F427969
:103F00009107F6D5530708D5FC68B9698C4200F0D3
:103F1000A880FFF73FFE0028EBD0019BFC68002B38
:103F200049D0DFF88C91DFF88CA1DDF80480386A85
:103F30000679013E06EA542616F0FF06C4F308048B
:103F400042D1002C40D1B96800296FD1FA69002A0A
:103F50007ED0BA60C4F50075ADB245453AD9057C4E
:103F60004169023AAA400E4416441FFA88F51CB96A
:103F7000F868BA6990424CD23046012100F0D2F87C
:103F80000028B6D04C4404EB050E74450DD00BF15F
:103F9000FF31621E0EF1FF3611F8010F02F8010F1A
:103FA0009642F9D1C4EB0E04A344FC68B8EB0508B3
:103FB0002C44FC60BBD1BB69A34257D27A79BC6167
:103FC00042F080027A715AE0C4F50075ADB2454501
:103FD000BA68C4D8017C4069023A8A400644B5F503
:103FE000007F1644C3D1DAF80020964204BF4FF098
:103FF000FF32CAF800202A4A314610685A46FFF7B5
:10400000DFFB00283FF475AF0BF5007B4FF4007524
:10401000CBE700F05DF800283FF46BAF2149CAF808
:1040200000600A7842F001020A70ABE703AA00F0D0
:10403000FBF800283FF460AF386A1B4B90F8205023
:10404000039A4FF6F871102D18BF19468A4280D393
:104050003846FFF739FC00283FF44BAF386ABA689E
:1040600078E7019B002B7FF45CAF08E00F4B7A7977
:104070001B6823B1019B13B142F080027A711207D1
:1040800009D5BB79002B3FF434AF3846FFF7E6FB88
:1040900000283FF42EAF019805B0BDE8F08F00BFB7
:1040A000F0D4FF1FF4D6FF1FF8FFFF0FE8D4FF1F67
:1040B000F4D4FF1F30BFFF1F00B583B002AB012255
:1040C00003F8011D1946FFF70BFF03B05DF804FB71
:1040D00070B50F4C23780BB9012070BD0D4B0E4D00
:1040E000196828680D4AFFF76BFB70B10C4E3168F8
:1040F00019B900232370012070BD2868074AFFF713
:104100005FFB10B100233360F3E7002070BD00BFF8
:10411000F4D6FF1F30BFFF1FF0D4FF1FF4D4FF1FE2
:10412000ECD4FF1F70B50D4D2B6883420E460ED0A8
:104130000446FFF7CDFF08B9002070BD084B094ABF
:1041400018682146FFF776FA0028F5D02C60064B58
:10415000197831431970012070BD00BF30BFFF1FB7
:10416000F0D4FF1FF4D4FF1FF4D6FF1FF8B590F86A
:104170002030C469102B1A4B05460E4617461B68A3
:1041800016D004EBD1149C4216D106F07F06154AD6
:1041900042F826701449287E0A78012842F001026C
:1041A0000A7018D9A968114A0B4413600120F8BDA0
:1041B00004EB11249C4208D000212046FFF7B2FFF7
:1041C00050B195F82030102B07D1F6B2054A23469E
:1041D00022F81670DEE70120F8BD2346D5E700BFC0
:1041E00030BFFF1FF4D4FF1FF4D6FF1FECD4FF1F16
:1041F00010B50446FFF76CFF78B1084B002103F5BA
:10420000007203F8011F9342FBD1054A0549137858
:104210000C6043F001031370012010BDF3D4FF1FA5
:10422000F4D6FF1F30BFFF1FC36801338B4218D382
:1042300070B590F82030102B154B044616460D46ED
:10424000C0691B680FD000EBD11098420FD105F068
:104250007F01104B53F8213023F07043336001206D
:1042600070BD0020704700EB1120984207D000215C
:10427000FFF758FF50B194F82030102BE7D1E9B286
:10428000044B33F811303360012070BD002070BD45
:1042900030BFFF1FF4D4FF1F2DE9F04782B002ADFD
:1042A000DFF8508045F8041D044691464FF0000A9F
:1042B0004FF400774FF6F8760CE094F82030227C2B
:1042C0000199102B14BF4346334607FA02F2994274
:1042D000924408D22A462046FFF7A6FF0028ECD1D8
:1042E00002B0BDE8F0870120C9F800A002B0BDE827
:1042F000F08700BFF8FFFF0F2DE9F04F176883B07C
:104300006FB301374FF0000AC36803F1010813B31C
:104310008B46064691463C46002505E01C461F4656
:10432000F3680135AB4216D9A04538BF02242146B7
:1043300001AA304638BF2746FFF776FF631CD91B1A
:1043400048B1019A002AE9D18B4510D01C46F36888
:104350000135AB42E8D8002003B0BDE8F08FA1F1F1
:10436000010ABAFA8AFA07684FEA5A1ACCE7012C0E
:10437000F1D9F36801339C42EDD86FF070422146C9
:104380003046FFF7F3FE0028E5D0A74214D2013CE7
:10439000012CE0D9F36801339C42DCD8621C214631
:1043A0003046FFF7E3FE0028D5D0A74204F1FF34E2
:1043B00002D0012CEED1CEE7D9F8001059B1012975
:1043C000C9D9F36801339942C5D83A463046FFF758
:1043D000CDFE0028BFD0C9F80070BAF1000F01D09F
:1043E000013737600120B7E701290AD9C3680133D3
:1043F000994210B402D810BCFFF7B8BE002010BC20
:1044000070470020704700BFF0B5022383B0054617
:10441000134F03600C464FF6F8760FE0EB6801335C
:104420009C4216D8FFF7A2FE98B195F82030019C67
:10443000102B0CBF33463B469C420DD201AA2146AD
:104440002846FFF7F1FE2146002210B1012C284634
:10445000E4D8002003B0F0BD012003B0F0BD00BFE0
:10446000F8FFFF0FF8B53E4B054619601446DAB168
:10447000042A01D90020F8BD00210846FFF752FEAA
:104480000028F7D0374B03EB041292F8AE21520606
:10449000F0D11B3403EB0414D4F80A30632BE9D9B0
:1044A000D4F80640002CE5D000212046FFF73AFE64
:1044B0000028DFD02B4AB2F80B30B3F5007FD9D1FA
:1044C000117C0029D6D0D389002BD3D0567B002E67
:1044D000D0D0002329762E712B74012703E00929FF
:1044E0000B462974C6D007FA03F0B04203F101016C
:1044F000F5D1D68A1B4906B94E6AB2F80EE0AE6015
:10450000A644C5F81CE0B2F81110177C6984480174
:1045100006FB07E600F2FF1006EB60206E626861A2
:10452000B2F813100F4E01B9316A241A0C4424FA60
:1045300003F340F6F4718B42EB600BD94FF6F47144
:104540008B4285BFD36A6B621023202385F820300D
:104550000120F8BD0C2385F820300120F8BD00BFF4
:10456000F0D4FF1FF4D4FF1F90F8392090F83800E2
:10457000101A704790F8383090F839209A4205D9CF
:104580005A1C034480F83820187E70474FF0FF30E3
:10459000704700BF90F8383090F839209A4286BFB3
:1045A0001B18187E4FF0FF30704700BF704700BFE8
:1045B00038B50546B0F85E0090B195F85D30144608
:1045C000C3F1210294420CD805F13B001844224665
:1045D00000F0FCF895F85D30234485F85D30204606
:1045E00038BD012014462871EEE700BFB0F85E30F8
:1045F0006BB190F85D30202B07D8C218013380F8DA
:104600005D30012082F83B107047012303710020C8
:10461000704700BF10B50269D378DBB2D9060446F3
:104620003DD510215806D17038D503F0040303F0AE
:10463000FF02002B51D03D49626E00230B7084F8BD
:104640005D30002A5BD0904794F85D30002B56D047
:104650002369D0229A70236994F83B201A71236948
:10466000012284F85C200222DA7010BD304B84F8FD
:1046700060009C424AD02F4B9C4252D094F8391093
:1046800013791F29DBB207D82848007820B16018B9
:10469000013184F8391003760223D37010BD590616
:1046A000C3D4917801F0100101F0FF000029DDD0A2
:1046B00013F001031ED194F85C1094F85D00884259
:1046C00081BF4B1C091984F85C3091F83B301371A1
:1046D0002369D0229A702269DEE7236984F83920A1
:1046E000C0229A702369114A19790121117002229E
:1046F000DA7010BDC023937022691379CCE70122D0
:10470000002384F85D2084F83B30A1E7626994F8C7
:104710006130094913440322187A00F0E7FB22694B
:10472000ACE7626994F861300449F3E7F5D6FF1FFE
:1047300034BFFF1FA0BFFF1F9D470000A947000017
:104740000369DB7803F0200373B190F86030013324
:10475000DBB2012B80F860301AD9426990F86130E1
:104760001344187A00F03EBC70B5426903F0FF05AF
:1047700090F8613013440446187A00F033FCA36EBD
:104780005BB184F8385094F83900BDE870401847A0
:1047900090F85F30002BE0D0704770BD0148FFF704
:1047A000CFBF00BF34BFFF1F0148FFF7C9BF00BF25
:1047B000A0BFFF1F0148FFF72DBF00BF34BFFF1F81
:1047C0000148FFF727BF00BFA0BFFF1F844641EA93
:1047D000000313F003036DD1403A41D351F8043B79
:1047E00040F8043B51F8043B40F8043B51F8043BCB
:1047F00040F8043B51F8043B40F8043B51F8043BBB
:1048000040F8043B51F8043B40F8043B51F8043BAA
:1048100040F8043B51F8043B40F8043B51F8043B9A
:1048200040F8043B51F8043B40F8043B51F8043B8A
:1048300040F8043B51F8043B40F8043B51F8043B7A
:1048400040F8043B51F8043B40F8043B51F8043B6A
:1048500040F8043B51F8043B40F8043B403ABDD2D9
:10486000303211D351F8043B40F8043B51F8043B7B
:1048700040F8043B51F8043B40F8043B51F8043B3A
:1048800040F8043B103AEDD20C3205D351F8043B0A
:1048900040F8043B043AF9D2043208D0D2071CBFD6
:1048A00011F8013B00F8013B01D30B8803806046FF
:1048B000704700BF082A13D38B078DD010F0030375
:1048C0008AD0C3F10403D21ADB071CBF11F8013BE5
:1048D00000F8013B80D331F8023B20F8023B7BE734
:1048E000043AD9D3013A11F8013B00F8013BF9D25F
:1048F0000B7803704B7843708B78837060467047F9
:10490000374A384913681B06FCD40B6813F0800340
:10491000F8D172B634490A78002A5FD0334A344855
:10492000F0B4344C176806682568D4680C303E44EF
:10493000143200681268304F35442C44204402443D
:10494000C2F34E022D4E2E482E4D2F4C42F4004203
:104950003A60376806682D682C4A24680C303E445B
:10496000006812682A4F35442C4420440244C2F3A4
:104970004E02284E2848294D294C42F400423A6004
:10498000376806682D68274A24680C303E44006862
:104990001268254F35442C4420440244C2F34E0291
:1049A000224E2348234D244C42F400423A6037689B
:1049B00006682D68214A24680C303E44006812685D
:1049C00035442C4420440244C2F34E021C4842F4B5
:1049D000004202600B7062B6F0BC704762B670476E
:1049E00024B0034024B00B40F7D6FF1F38B003407B
:1049F0003CB0034040B003402CB0034058B00340EB
:104A00005CB0034060B0034064B003406CB003404E
:104A100030B0034038B00B403CB00B4040B00B40CE
:104A200044B00B404CB00B402CB00B4058B00B4086
:104A30005CB00B4060B00B4064B00B406CB00B40FE
:104A400030B00B4030B42948294A2A4B2A4D602403
:104A5000E121047011701B78284C082B30D00A2BF0
:104A60002748284937D00C2B0CBF35223D22122372
:104A70002A60236002600B60234B24491B78244A80
:104A8000BBB101230B601360224B23491B78234ADF
:104A9000012B26D9042B0FD9082B1ED9102B94BF1C
:104AA000862387230B6013601D4B01221A7030BCD4
:104AB00070470B601360E7E784230B601360F3E734
:104AC00000F58E200F490830012213232A6023604D
:104AD00002600B60D0E73922F7E785230B60136093
:104AE000E2E780230B601360DEE700BF0040074071
:104AF000014007400CC0FF1F08B003400CB003404A
:104B000008B00B400CB00B40FAD6FF1F20B003409A
:104B100020B00B400DC0FF1F24B0034024B00B4059
:104B2000F7D6FF1F0C2830B417D91023984228BF9E
:104B300018461C46104A114D1178181A8C422870DC
:104B400018D00F4913700B7823B10E490E4A002379
:104B50000B60136030BCFFF775BF0A2802D90C2325
:104B60001C46E7E7082802D90A231C46E2E7082387
:104B70001C46DFE730BC70470CC0FF1FF6D6FF1F96
:104B8000F7D6FF1F24B0034024B00B4028282FD8AD
:104B9000334B2DE9F0411E5CFF2E2BD0314B1B789F
:104BA000002B2AD132062CD472B62F4D2F4C2F4613
:104BB000012326602B7062B672B623681B060CD4E4
:104BC0003B781BB9F4E72B78002BF1D062B602F0EA
:104BD0009BF872B623681806F5D5254B1B68002292
:104BE0002A7062B6234A107843FA00F0BDE8F081DB
:104BF000002070470020BDE8F081FFF781FE3206FB
:104C0000D2D572B61C4DDFF87C801C4C06F04007F4
:104C1000FFB206F03F06D8F80030DFB123F01003F2
:104C2000C8F8003001232660134A2B7062B672B6B2
:104C3000236819060CD413781BB9ECE72B78002BEA
:104C4000E9D062B602F060F872B623681B06F5D5AB
:104C50000B4BC3E743F01003C8F80030E2E700BF96
:104C60009CC20000F7D6FF1FF9D6FF1F00B003401B
:104C700010B00340F6D6FF1FF8D6FF1F00B00B4060
:104C800010B00B400CB00B40F0B51B4B1B4E5968DD
:104C900018689A68DB6885B06C460FC4337899074A
:104CA0001DD5174A174C1378174913F0700318BF16
:104CB0001370164A164B80271770002633200322E4
:104CC00026706D4608701A7072B6043C45F00105F6
:104CD0002046A84762B6237813F0700309D10D4B24
:104CE000064901E0013B02D00A78D207FAD505B0A7
:104CF000F0BD237005B0F0BDC8C200000100024045
:104D000000000240040002400B0002400700024085
:104D10000A000240410D0300B0F5006F0AD210B541
:104D2000094B1B78DB07044606D504F1A050007838
:104D3000C0B210BD00207047FFF7A6FF04F1A050DD
:104D40000078C0B210BD00BF01000240B0F5006F96
:104D500017D238B50F4B1B78DA070D46044611D52C
:104D600004F1A0500378AB420AD00B4A137813F039
:104D7000700318BF1370074A05701378DB07FCD562
:104D800038BD7047FFF780FF04F1A0500378AB42B5
:104D9000EBD1F5E7010002400000024008B5104CDD
:104DA00008E0236859050DD423681A050FD4236839
:104DB000DB0411D423685803F3D500F01BFB2368F0
:104DC0005905F1D502F024F823681A05EFD502F051
:104DD000B5F82368DB04EDD502F046F9EAE700BF39
:104DE0003480044008B5FFF7D9FF00BF014B102203
:104DF0001A80704700200540704700BF094908B578
:104E00000B6830B16A461844A2F58052904202D233
:104E10000860184608BD04F073FA0C2303604FF0D5
:104E2000FF3008BD10C0FF1FFEE700BF704700BF86
:104E300010B40F4B53F8302092F880422CB101236C
:104E400069B182F8803010BC704703EBC0035B6827
:104E50001A6841B922F002021A6010BC704782F849
:104E6000003110BC704742F003021A6010BC70475A
:104E7000D8C200001C4A02EBC00301295B6811D0B4
:104E800004291BD052F83000002280F8802229B17A
:104E9000022920D0032922D01A6070474FF4807273
:104EA0001A60704752F830004FF4A27280F88012F6
:104EB0001A601A6822F020021A60704752F8301007
:104EC0004FF4A272012081F880021A601A6842F041
:104ED00020021A60704740F203121A6070474FF4C4
:104EE00081721A60704700BFD8C20000212848D8DC
:104EF000F8B5042A44D8DFE802F0484B4E034500D9
:104F00004FF410262B4B03EBC0030D465C68216861
:104F100011F4E06148D0284B284A2949C3F89C2164
:104F200004F140422748C3F8A411A2F59221264F6C
:104F3000C3F8A0017C292548C3F8A871C3F8AC01C7
:104F40002CD9A2F594237C2B2AD9A2F596237C2B6D
:104F500028D9A2F598237C2B29D9A2F59A227C2A5C
:104F600027D81B4872B6236823F4702343F080725D
:104F7000C4F384011643236040F82150266062B6D2
:104F8000F8BD70474FF43026BCE74FF40026B9E770
:104F90004FF44026B6E74FF42026B3E70D48E1E78B
:104FA0000D48DFE70D48DDE7FFF764FFB3E70C4886
:104FB000D8E7F8BDD8C2000000B8FF1FD1BDFF1F61
:104FC00079BDFF1FA5BDFF1F4DBDFF1F21BDFF1FE9
:104FD000ECC0FF1F14C0FF1F4CC0FF1F9CC0FF1F71
:104FE000CCC0FF1F1A4B03EBC00010B4426802F1A3
:104FF0004043A3F592217C2923D9A3F594217C2950
:105000000DD9A3F596217C291FD9A3F598217C29D8
:1050100019D9A3F59A237C2B11D80E4C00E00E4C25
:1050200072B613680D4823F08773C2F3840123F42A
:10503000803343F08073136044F8210062B610BCE3
:105040007047074CECE7074CEAE7074CE8E700BF7E
:10505000D8C20000ECC0FF1F4CC0FF1F2D4E000047
:1050600014C0FF1FCCC0FF1F9CC0FF1F30B4054BF6
:10507000054D064C002210211A602A60206019603C
:1050800030BC704714D0034004D0034000D003402C
:10509000212801D8FFF7CCBE704700BF212806D8D1
:1050A000044B53F8303093F80002C0B27047002030
:1050B000704700BFD8C20000212801D8FFF7DABE30
:1050C000704700BF2DE9F843054672B6204F214BCB
:1050D000214A1B683C68126862B6520102D5322B25
:1050E00088BF013495B3C3F5BB331C4EDFF8649021
:1050F000DFF86480FF334FF47A72A6FB031302FBE0
:1051000004F404EB931472B6D9F800103A68D8F896
:1051100000E062B6C1F5BB33FF33A6FB03031EF00C
:10512000806FC4EB93134FF47A7002D0322988BF9A
:10513000013200FB0233B3F57A7F04D3013D05D081
:1051400004F57A74DFE701F0DFFDDCE7BDE8F88302
:10515000FCD6FF1F18E000E004ED00E0ABAAAAAA0D
:10516000F8B52D4B2D49DFF8D0E0DFF8D0C02C4E3C
:105170002C4D2D4C2D4A2E4F4FF4000018604FF04F
:10518000807018604FF0007018604FF080601860F9
:105190004FF0006018600020086028234BF6FF7174
:1051A000CCF80010CEF80030336013602B60236021
:1051B0003B60B3629362092245F8242CC4F8D80FEF
:1051C00005F57F65C7F8D41F07F5FF2707F5FA67D0
:1051D000C6F8F83F2B6006F5FF26C4F8D42F05F576
:1051E000FD2504F5FF24386006F2F476114831609D
:1051F00005F5FF6504F5FD642B6023600260FFF791
:1052000021FC1920FFF75EFF00F05CFE40F2131056
:10521000BDE8F840FFF756BF08E100E00480034016
:1052200014800340248003402C8003401C800340F2
:105230003480034000800B400C8003400880034012
:10524000431E032B14D872B60A4951F8230068B1E3
:1052500070B4094C058834F81320466841F823607F
:10526000521B24F8132062B670BC704762B67047B8
:105270000020704758D7FF1F14DAFF1F013803289A
:105280000BD872B6074B53F8203043B100205B684F
:105290000130002BFBD162B67047002070471846E2
:1052A000F9E700BFACD7FF1F30B472B62B4A1378B2
:1052B0001D0706D52A4B196A002936D0996A00299C
:1052C00041D053781C0706D5254B196C00293ED0D8
:1052D000996C002939D09378190705D5204B196EA0
:1052E000002936D0996E89B1D3781B0707D51C4B9E
:1052F000D3F880207AB3D3F8882011213AB162B66E
:10530000184B00221A7030BC00F068BE0D21154CFD
:10531000154D227843F8315003EBC1030830013AB0
:105320005860227062B630BC704704220D4C0F4D9D
:10533000217843F8325003EBC20308304A1E58600C
:10534000227062B6EFE70521E1E70921DFE70822D5
:10535000ECE70C22EAE71022E8E700BF14C40000E3
:105360000080FF1FD5D7FF1FC80040008800400005
:10537000431E032B1DD81B4A400140F0100030B4DF
:10538000104472B6184CE25C032A1BD8DFE802F026
:105390000212151703220D88E25410F0080F14BFF3
:1053A000C823882343EA054308310360416062B69D
:1053B00030BC704708300222EDE70522EBE70830E9
:1053C0000422E8E7094A52F8230038B1084A52F8A3
:1053D0002300416042F8231062B6E9E742F8231047
:1053E000034AF7E70080FF1FE4D7FF1FACD7FF1F7A
:1053F000BCD7FF1F2DE9F04FDFF80CB3DFF80CA38B
:1054000087B044E0AB4F4FEA930807EBC809013E71
:10541000D9F8042003F00803F6B2A2F1080003F063
:10542000FF04002B40F0028157F838301B0C99B272
:1054300022F8081C002B00F0F0809F4B22F8064C4D
:1054400042F8044C53F82620002A00F0C5829B4DF8
:1054500055F8263058609A4C45F8260034F8163036
:10546000194424F8161000F099FD002800F0AD82D0
:10547000944A954B19F0080F00F1080018BF134625
:10548000C9F8040047F8383008238BF800309BF83F
:105490000040E4B261071AD58C4B1B78A3B18C494C
:1054A0000A7802F0FF0322B1013BDBB20B7003B9B3
:1054B00000BE88490A7802F0FF032AB1013BDBB243
:1054C0000B70002B00F0578204238BF8003004F09F
:1054D000080303F0FF02002B00F0CC809AF80030A4
:1054E000DBB21E098ED19C08DFF8C89159F8342030
:1054F00009EBC401C2F38302013A49680C2A00F2A5
:105500008880DFE802F07C7C8686868686864786F1
:10551000868607000868704D4A68704F704E286094
:1055200081B240F28160674B6A604FF0010E002249
:10553000814249F834303A60C9F81020C9F818207F
:1055400086F800E05B4C00F2E380B1F5D06F80F0AC
:105550004683B1F5817F00F0FC8200F28D828029C4
:1055600000F07783822940F0FA82A98801F07F0158
:10557000042900F2F4825B485B4C890008442270E5
:1055800062700278930740F1588484F800E04FF08D
:10559000020E42E3514F3A6832B3544B504E5449D5
:1055A000188834780D784028864645F0020828BFD0
:1055B0004FF0400E002C84F001043470CEEB00005C
:1055C0000CBF8824C82409EBC80680B285F0010509
:1055D00044EA0E447260188049F8384072440D70F5
:1055E000002800F045813A603B4B1A88B2F5A06F65
:1055F0000FD100219A7859703E4B1A7009E0364A53
:10560000108842F22102904200F037812D4A49F879
:105610003420394A0123137036E72A4A2A4B19F0FD
:10562000080F18BF134647F838302DE700F0D6FCB6
:10563000324A334952F82630002B00F0D1815868A5
:105640008C5D42F8260003F10802C9F80420032CFF
:1056500005D8DFE804F02C02292602228A551A8890
:1056600019F0080F0CBF8823C82343EA024347F808
:10567000383009E7E00700F18181210600F1F2816D
:10568000A20706D51F4A204913780220DBB2137007
:105690000870E30602D51C4B10221A7007B0BDE853
:1056A000F08F04228A55DAE705228A55D7E70322CC
:1056B0008A55D4E70080FF1F58D7FF1F04D7FF1F6C
:1056C00014DAFF1FC800400088004000E0D7FF1F29
:1056D00069D7FF1FE8D7FF1FCCD7FF1F00D7FF1FD9
:1056E00068D7FF1FC0200740D8D7FF1F14D7FF1F60
:1056F000D4D7FF1F9820074094200740ACD7FF1F46
:10570000E4D7FF1F882007408020074090200740F3
:1057100042F22100814200F02A8100F2D880B1F5E6
:10572000086F00F07682B1F5106F40F01882226A9F
:10573000B349A8780870120600F13A83D9F82820F6
:10574000B049130600F10C83D9F83020AD49150695
:1057500000F10183D9F83820AA49140600F1F68235
:10576000D9F84020A749100600F14A83D9F848200B
:10577000A449120600F13F83D9F85020A14913062D
:1057800000F13483D9F858209E49150600F1298389
:10579000D9F860209B49140600F11E83D9F86820CF
:1057A0009849100600F11383D9F870209549120624
:1057B00000F10883D9F878209249130600F1FD82A0
:1057C000D9F880208F49150600F13183D9F8882057
:1057D0008C49140600F12583D9F8902089491006D8
:1057E00000F11983D9F898208649120600F10D833B
:1057F0008548864A864901908648874D874C04979C
:1058000000230596029580460F4616461D460394D2
:10581000306828B1446800F0E1FB2046002CF9D143
:1058200000233360029B38681A46002342F8253073
:1058300028B1446800F0D2FB2046002CF9D10022A8
:105840003A60019A98F800301146002241F8042B82
:10585000039A0191023B4FF0000122F81510032B2F
:1058600000F22B81DFE813F07001250170012501A2
:10587000BEF1400F18BF0022B5E6694A0D7848789E
:10588000157050708D78C8789570D07010680D794B
:10589000157186284D7989795571917100F09B8138
:1058A0006049614E0A78307882F00105002842F0A4
:1058B00002020D700CBF8821C82149F8321009EB93
:1058C000C20280F001000021307051609EE642F279
:1058D0002120814240F0CB81544B554C5549A8784A
:1058E0001D682560CDF804E0087000200290804615
:1058F000844604464B490D7845F0020E09EBCE0371
:105900000393019B002B039B5C600CBF8824C8247D
:1059100044EA080385F0010449F83E3032700C7007
:10592000DFF8E0E0404BDFF8FC80002840F01E810B
:10593000BCF1400F1BD144F0020C09EBCC03029CDC
:10594000DFF8C0E05C60002A40F02681020442F0EB
:1059500088029DF804304EF83C20044433700D70EA
:105960002346402803D10020334A3B601080334A4D
:10597000012313704DE600F09DFCA5E5214B2F4857
:1059800028491A614FF0020E80F800E02C4F0A708F
:105990002C49196099602C4E2C4D2D4C9A610D218B
:1059A0003970FF213170DFF8B8E029702270294D7D
:1059B000294A8EF800109F27012406F8047C5D60B8
:1059C0000470DA6007B0BDE8F08F244A47F8380069
:1059D00013780133137057E543F826000E4D3AE56E
:1059E0008B5D032B00F2F08001A252F823F000BF80
:1059F0008954000089540000AD5A0000A75A0000E5
:105A0000E0D7FF1F0080FF1FBCD7FF1F58D7FF1F25
:105A1000ACD7FF1FE4D7FF1F04D7FF1F14DAFF1F07
:105A20001CDAFF1FD4D7FF1F68D7FF1FFCD6FF1F4C
:105A300024DAFF1FF8D7FF1F14D7FF1F9420074059
:105A4000C020074088004000882007408020074091
:105A50009820074018D7FF1F6CD7FF1FD5D7FF1F0F
:105A60008C200740C149C24B80220D2008701A705B
:105A7000A2077FF50EAE05E640F20232914240F0F9
:105A8000EE80A98801F07F01042968D86A88002A7D
:105A900065D1B648CDF804E089000844017841F0AA
:105AA0000201017021E701238B55EDE400238B55A2
:105AB000EAE44FF0010388F800300135042D06F1C7
:105AC000040607F1040708F101087FF4A1AEA94C10
:105AD000A94B2278A94D049F059E002129701A70B8
